:020000001028C6
:10000800FE00030EF1000408F2000A08F300831250
:1000180003137F08F400362911286421F5006521AF
:10002800F6006621F7006721F800AD0183011C285E
:1000380083120313A901AA01AB010130A700003004
:10004800A800AC0107309F000530900090308B006D
:10005800C8308316031381003E30850001308600C6
:1000680083120313850186010108A5002508A00055
:100078000E08A6002608A1000F08C220B82801080B
:10008800A5002508A0000F08A6002608A1000E0854
:10009800C22015210F3983120313A5002508AC00CF
:1000A8000B302C02031843282C080319432801306D
:1000B800A5002508AB070B302B06031D6528AB01EF
:1000C800AB0A2B08EF20492183120313A901AA01C7
:1000D80028082A02031D72282708290203188428E1
:1000E800F930A5000000A50B76287A280000013019
:1000F80083120313A9070318AA0A0030AA076C2859
:100108000430A7070318A80A0030A80700302802FF
:10011800643003192702031C5B282B082C06031DD7
:100128005B28A901AA01AD010130A7000030A80091
:10013800AC018B17A628F930A5000000A50BA12853
:10014800A5280000013083120313A9070318AA0A7F
:100158000030AA0713302A0288300319290203182D
:10016800B8282D0803199F28831203132D08031D8F
:1001780054280030EF2063000000B82883120313CE
:10018800A4000130A2002208F8072408A2002208CF
:10019800F5062008A2002208F6062108A200220877
:1001A800F706750877067806A2002208F500750894
:1001B8007607A2002208F6007608A2000130031094
:1001C800A20CFF3E031DE328770822077506A3004B
:1001D8002308F700080083120313A0008501860195
:1001E8000929861408000615080086150800061651
:1001F8000800861608000617080086170800051765
:1002080008008517080005140800200884000B3032
:1002180004020318080001308A00593004078200DC
:100228000800013083120313A0002008F80775089E
:1002380077067806A0002008F50075087607A00064
:100248002008F6007608A00001300310A00CFF3E3D
:10025800031D2929770820077506A1002108F70042
:10026800770808008B1C3E298B130130F0007008BA
:10027800AD008B107408FF0073088A0072088400B0
:10028800710E8300FE0E7E0E09008316031385107F
:10029800F93083120313A0000000A00B5029542941
:1002A800000083160313851408001429F528F7287D
:1002B800F928FB28FD28FF280129032905290729F2
:0802C8005334B3340B34073446
:02400E0010FFA1
:00000001FF
